{"abi":[{"type":"function","name":"addToBlockchain","inputs":[{"name":"receiver","type":"address","internalType":"address payable"},{"name":"amount","type":"uint256","internalType":"uint256"},{"name":"message","type":"string","internalType":"string"},{"name":"keyword","type":"string","internalType":"string"}],"outputs":[],"stateMutability":"nonpayable"},{"type":"function","name":"getAllTransactions","inputs":[],"outputs":[{"name":"","type":"tuple[]","internalType":"struct Transactions.transferStruct[]","components":[{"name":"from","type":"address","internalType":"address"},{"name":"receiver","type":"address","internalType":"address"},{"name":"amount","type":"uint256","internalType":"uint256"},{"name":"message","type":"string","internalType":"string"},{"name":"timestamp","type":"uint256","internalType":"uint256"},{"name":"keyword","type":"string","internalType":"string"}]}],"stateMutability":"view"},{"type":"function","name":"getTransactionCount","inputs":[],"outputs":[{"name":"","type":"uint256","internalType":"uint256"}],"stateMutability":"view"},{"type":"event","name":"Transfer","inputs":[{"name":"from","type":"address","indexed":false,"internalType":"address"},{"name":"receiver","type":"address","indexed":false,"internalType":"address"},{"name":"amount","type":"uint256","indexed":false,"internalType":"uint256"},{"name":"message","type":"string","indexed":false,"internalType":"string"},{"name":"timestamp","type":"uint256","indexed":false,"internalType":"uint256"},{"name":"keyword","type":"string","indexed":false,"internalType":"string"}],"anonymous":false}],"bytecode":{"object":"0x608060405234801561001057600080fd5b50610e0c806100206000396000f3fe608060405234801561001057600080fd5b50600436106100415760003560e01c806327506f53146100465780632e7700f014610064578063cc2d7ead14610082575b600080fd5b61004e61009e565b60405161005b91906106da565b60405180910390f35b61006c6102e1565b604051610079919061070b565b60405180910390f35b61009c600480360381019061009791906108d9565b6102ea565b005b60606001805480602002602001604051908101604052809291908181526020016000905b828210156102d857838290600052602060002090600602016040518060c00160405290816000820160009054906101000a900473ffffffffffffffffffffffffffffffffffffffff1673ffffffffffffffffffffffffffffffffffffffff1673ffffffffffffffffffffffffffffffffffffffff1681526020016001820160009054906101000a900473ffffffffffffffffffffffffffffffffffffffff1673ffffffffffffffffffffffffffffffffffffffff1673ffffffffffffffffffffffffffffffffffffffff168152602001600282015481526020016003820180546101ab906109a7565b80601f01602080910402602001604051908101604052809291908181526020018280546101d7906109a7565b80156102245780601f106101f957610100808354040283529160200191610224565b820191906000526020600020905b81548152906001019060200180831161020757829003601f168201915b5050505050815260200160048201548152602001600582018054610247906109a7565b80601f0160208091040260200160405190810160405280929190818152602001828054610273906109a7565b80156102c05780601f10610295576101008083540402835291602001916102c0565b820191906000526020600020905b8154815290600101906020018083116102a357829003601f168201915b505050505081525050815260200190600101906100c2565b50505050905090565b60008054905090565b60016000808282546102fc9190610a07565b9250508190555060016040518060c001604052803373ffffffffffffffffffffffffffffffffffffffff1681526020018673ffffffffffffffffffffffffffffffffffffffff16815260200185815260200184815260200142815260200183815250908060018154018082558091505060019003906000526020600020906006020160009091909190915060008201518160000160006101000a81548173ffffffffffffffffffffffffffffffffffffffff021916908373ffffffffffffffffffffffffffffffffffffffff16021790555060208201518160010160006101000a81548173ffffffffffffffffffffffffffffffffffffffff021916908373ffffffffffffffffffffffffffffffffffffffff1602179055506040820151816002015560608201518160030190816104349190610be7565b506080820151816004015560a08201518160050190816104549190610be7565b5050507f416cfa4330a4565f45c2fd2dd4826a83a37443aba2ce6f79477c7355afac35fa33858585428660405161049096959493929190610d67565b60405180910390a150505050565b600081519050919050565b600082825260208201905092915050565b6000819050602082019050919050565b600073ffffffffffffffffffffffffffffffffffffffff82169050919050565b60006104f5826104ca565b9050919050565b610505816104ea565b82525050565b6000819050919050565b61051e8161050b565b82525050565b600081519050919050565b600082825260208201905092915050565b60005b8381101561055e578082015181840152602081019050610543565b60008484015250505050565b6000601f19601f8301169050919050565b600061058682610524565b610590818561052f565b93506105a0818560208601610540565b6105a98161056a565b840191505092915050565b600060c0830160008301516105cc60008601826104fc565b5060208301516105df60208601826104fc565b5060408301516105f26040860182610515565b506060830151848203606086015261060a828261057b565b915050608083015161061f6080860182610515565b5060a083015184820360a0860152610637828261057b565b9150508091505092915050565b600061065083836105b4565b905092915050565b6000602082019050919050565b60006106708261049e565b61067a81856104a9565b93508360208202850161068c856104ba565b8060005b858110156106c857848403895281516106a98582610644565b94506106b483610658565b925060208a01995050600181019050610690565b50829750879550505050505092915050565b600060208201905081810360008301526106f48184610665565b905092915050565b6107058161050b565b82525050565b600060208201905061072060008301846106fc565b92915050565b6000604051905090565b600080fd5b600080fd5b6000610745826104ca565b9050919050565b6107558161073a565b811461076057600080fd5b50565b6000813590506107728161074c565b92915050565b6107818161050b565b811461078c57600080fd5b50565b60008135905061079e81610778565b92915050565b600080fd5b600080fd5b7f4e487b7100000000000000000000000000000000000000000000000000000000600052604160045260246000fd5b6107e68261056a565b810181811067ffffffffffffffff82111715610805576108046107ae565b5b80604052505050565b6000610818610726565b905061082482826107dd565b919050565b600067ffffffffffffffff821115610844576108436107ae565b5b61084d8261056a565b9050602081019050919050565b82818337600083830152505050565b600061087c61087784610829565b61080e565b905082815260208101848484011115610898576108976107a9565b5b6108a384828561085a565b509392505050565b600082601f8301126108c0576108bf6107a4565b5b81356108d0848260208601610869565b91505092915050565b600080600080608085870312156108f3576108f2610730565b5b600061090187828801610763565b94505060206109128782880161078f565b935050604085013567ffffffffffffffff81111561093357610932610735565b5b61093f878288016108ab565b925050606085013567ffffffffffffffff8111156109605761095f610735565b5b61096c878288016108ab565b91505092959194509250565b7f4e487b7100000000000000000000000000000000000000000000000000000000600052602260045260246000fd5b600060028204905060018216806109bf57607f821691505b6020821081036109d2576109d1610978565b5b50919050565b7f4e487b7100000000000000000000000000000000000000000000000000000000600052601160045260246000fd5b6000610a128261050b565b9150610a1d8361050b565b9250828201905080821115610a3557610a346109d8565b5b92915050565b60008190508160005260206000209050919050565b60006020601f8301049050919050565b600082821b905092915050565b600060088302610a9d7fffffffffffffffffffffffffffffffffffffffffffffffffffffffffffffffff82610a60565b610aa78683610a60565b95508019841693508086168417925050509392505050565b6000819050919050565b6000610ae4610adf610ada8461050b565b610abf565b61050b565b9050919050565b6000819050919050565b610afe83610ac9565b610b12610b0a82610aeb565b848454610a6d565b825550505050565b600090565b610b27610b1a565b610b32818484610af5565b505050565b5b81811015610b5657610b4b600082610b1f565b600181019050610b38565b5050565b601f821115610b9b57610b6c81610a3b565b610b7584610a50565b81016020851015610b84578190505b610b98610b9085610a50565b830182610b37565b50505b505050565b600082821c905092915050565b6000610bbe60001984600802610ba0565b1980831691505092915050565b6000610bd78383610bad565b9150826002028217905092915050565b610bf082610524565b67ffffffffffffffff811115610c0957610c086107ae565b5b610c1382546109a7565b610c1e828285610b5a565b600060209050601f831160018114610c515760008415610c3f578287015190505b610c498582610bcb565b865550610cb1565b601f198416610c5f86610a3b565b60005b82811015610c8757848901518255600182019150602085019450602081019050610c62565b86831015610ca45784890151610ca0601f891682610bad565b8355505b6001600288020188555050505b505050505050565b610cc2816104ea565b82525050565b6000610ce3610cde610cd9846104ca565b610abf565b6104ca565b9050919050565b6000610cf582610cc8565b9050919050565b6000610d0782610cea565b9050919050565b610d1781610cfc565b82525050565b600082825260208201905092915050565b6000610d3982610524565b610d438185610d1d565b9350610d53818560208601610540565b610d5c8161056a565b840191505092915050565b600060c082019050610d7c6000830189610cb9565b610d896020830188610d0e565b610d9660408301876106fc565b8181036060830152610da88186610d2e565b9050610db760808301856106fc565b81810360a0830152610dc98184610d2e565b905097965050505050505056fea264697066735822122028965c01e9f19e977ccbf8fc1e440ec4a8cbf603eba563f16e2ae270a7df9a2064736f6c63430008140033","linkReferences":{}},"methodIdentifiers":{"addToBlockchain(address,uint256,string,string)":"cc2d7ead","getAllTransactions()":"27506f53","getTransactionCount()":"2e7700f0"},"id":0}